{"abi":[{"type":"constructor","inputs":[{"name":"initialOwner","type":"address","internalType":"address"}],"stateMutability":"nonpayable"},{"type":"function","name":"approve","inputs":[{"name":"to","type":"address","internalType":"address"},{"name":"tokenId","type":"uint256","internalType":"uint256"}],"outputs":[],"stateMutability":"nonpayable"},{"type":"function","name":"balanceOf","inputs":[{"name":"owner","type":"address","internalType":"address"}],"outputs":[{"name":"","type":"uint256","internalType":"uint256"}],"stateMutability":"view"},{"type":"function","name":"getApproved","inputs":[{"name":"tokenId","type":"uint256","internalType":"uint256"}],"outputs":[{"name":"","type":"address","internalType":"address"}],"stateMutability":"view"},{"type":"function","name":"isApprovedForAll","inputs":[{"name":"owner","type":"address","internalType":"address"},{"name":"operator","type":"address","internalType":"address"}],"outputs":[{"name":"","type":"bool","internalType":"bool"}],"stateMutability":"view"},{"type":"function","name":"name","inputs":[],"outputs":[{"name":"","type":"string","internalType":"string"}],"stateMutability":"view"},{"type":"function","name":"owner","inputs":[],"outputs":[{"name":"","type":"address","internalType":"address"}],"stateMutability":"view"},{"type":"function","name":"ownerOf","inputs":[{"name":"tokenId","type":"uint256","internalType":"uint256"}],"outputs":[{"name":"","type":"address","internalType":"address"}],"stateMutability":"view"},{"type":"function","name":"renounceOwnership","inputs":[],"outputs":[],"stateMutability":"nonpayable"},{"type":"function","name":"safeMint","inputs":[{"name":"to","type":"address","internalType":"address"},{"name":"uri","type":"string","internalType":"string"}],"outputs":[],"stateMutability":"nonpayable"},{"type":"function","name":"safeTransferFrom","inputs":[{"name":"from","type":"address","internalType":"address"},{"name":"to","type":"address","internalType":"address"},{"name":"tokenId","type":"uint256","internalType":"uint256"}],"outputs":[],"stateMutability":"nonpayable"},{"type":"function","name":"safeTransferFrom","inputs":[{"name":"from","type":"address","internalType":"address"},{"name":"to","type":"address","internalType":"address"},{"name":"tokenId","type":"uint256","internalType":"uint256"},{"name":"data","type":"bytes","internalType":"bytes"}],"outputs":[],"stateMutability":"nonpayable"},{"type":"function","name":"setApprovalForAll","inputs":[{"name":"operator","type":"address","internalType":"address"},{"name":"approved","type":"bool","internalType":"bool"}],"outputs":[],"stateMutability":"nonpayable"},{"type":"function","name":"supportsInterface","inputs":[{"name":"interfaceId","type":"bytes4","internalType":"bytes4"}],"outputs":[{"name":"","type":"bool","internalType":"bool"}],"stateMutability":"view"},{"type":"function","name":"symbol","inputs":[],"outputs":[{"name":"","type":"string","internalType":"string"}],"stateMutability":"view"},{"type":"function","name":"tokenURI","inputs":[{"name":"tokenId","type":"uint256","internalType":"uint256"}],"outputs":[{"name":"","type":"string","internalType":"string"}],"stateMutability":"view"},{"type":"function","name":"transferFrom","inputs":[{"name":"from","type":"address","internalType":"address"},{"name":"to","type":"address","internalType":"address"},{"name":"tokenId","type":"uint256","internalType":"uint256"}],"outputs":[],"stateMutability":"nonpayable"},{"type":"function","name":"transferOwnership","inputs":[{"name":"newOwner","type":"address","internalType":"address"}],"outputs":[],"stateMutability":"nonpayable"},{"type":"event","name":"Approval","inputs":[{"name":"owner","type":"address","indexed":true,"internalType":"address"},{"name":"approved","type":"address","indexed":true,"internalType":"address"},{"name":"tokenId","type":"uint256","indexed":true,"internalType":"uint256"}],"anonymous":false},{"type":"event","name":"ApprovalForAll","inputs":[{"name":"owner","type":"address","indexed":true,"internalType":"address"},{"name":"operator","type":"address","indexed":true,"internalType":"address"},{"name":"approved","type":"bool","indexed":false,"internalType":"bool"}],"anonymous":false},{"type":"event","name":"BatchMetadataUpdate","inputs":[{"name":"_fromTokenId","type":"uint256","indexed":false,"internalType":"uint256"},{"name":"_toTokenId","type":"uint256","indexed":false,"internalType":"uint256"}],"anonymous":false},{"type":"event","name":"MetadataUpdate","inputs":[{"name":"_tokenId","type":"uint256","indexed":false,"internalType":"uint256"}],"anonymous":false},{"type":"event","name":"OwnershipTransferred","inputs":[{"name":"previousOwner","type":"address","indexed":true,"internalType":"address"},{"name":"newOwner","type":"address","indexed":true,"internalType":"address"}],"anonymous":false},{"type":"event","name":"Transfer","inputs":[{"name":"from","type":"address","indexed":true,"internalType":"address"},{"name":"to","type":"address","indexed":true,"internalType":"address"},{"name":"tokenId","type":"uint256","indexed":true,"internalType":"uint256"}],"anonymous":false},{"type":"error","name":"ERC721IncorrectOwner","inputs":[{"name":"sender","type":"address","internalType":"address"},{"name":"tokenId","type":"uint256","internalType":"uint256"},{"name":"owner","type":"address","internalType":"address"}]},{"type":"error","name":"ERC721InsufficientApproval","inputs":[{"name":"operator","type":"address","internalType":"address"},{"name":"tokenId","type":"uint256","internalType":"uint256"}]},{"type":"error","name":"ERC721InvalidApprover","inputs":[{"name":"approver","type":"address","internalType":"address"}]},{"type":"error","name":"ERC721InvalidOperator","inputs":[{"name":"operator","type":"address","internalType":"address"}]},{"type":"error","name":"ERC721InvalidOwner","inputs":[{"name":"owner","type":"address","internalType":"address"}]},{"type":"error","name":"ERC721InvalidReceiver","inputs":[{"name":"receiver","type":"address","internalType":"address"}]},{"type":"error","name":"ERC721InvalidSender","inputs":[{"name":"sender","type":"address","internalType":"address"}]},{"type":"error","name":"ERC721NonexistentToken","inputs":[{"name":"tokenId","type":"uint256","internalType":"uint256"}]},{"type":"error","name":"OwnableInvalidOwner","inputs":[{"name":"owner","type":"address","internalType":"address"}]},{"type":"error","name":"OwnableUnauthorizedAccount","inputs":[{"name":"account","type":"address","internalType":"address"}]}],"bytecode":{"object":"0x60806040523480156200001157600080fd5b50604051620017a3380380620017a383398101604081905262000034916200012f565b806040518060400160405280600e81526020016d29b7bab63137bab7322a37b5b2b760911b8152506040518060400160405280600381526020016214d09560ea1b815250816000908162000089919062000206565b50600162000098828262000206565b5050506001600160a01b038116620000ca57604051631e4fbdf760e01b81526000600482015260240160405180910390fd5b620000d581620000dd565b5050620002d2565b600780546001600160a01b038381166001600160a01b0319831681179093556040519116919082907f8be0079c531659141344cd1fd0a4f28419497f9722a3daafe3b4186f6b6457e090600090a35050565b6000602082840312156200014257600080fd5b81516001600160a01b03811681146200015a57600080fd5b9392505050565b634e487b7160e01b600052604160045260246000fd5b600181811c908216806200018c57607f821691505b602082108103620001ad57634e487b7160e01b600052602260045260246000fd5b50919050565b601f8211156200020157600081815260208120601f850160051c81016020861015620001dc5750805b601f850160051c820191505b81811015620001fd57828155600101620001e8565b5050505b505050565b81516001600160401b0381111562000222576200022262000161565b6200023a8162000233845462000177565b84620001b3565b602080601f831160018114620002725760008415620002595750858301515b600019600386901b1c1916600185901b178555620001fd565b600085815260208120601f198616915b82811015620002a35788860151825594840194600190910190840162000282565b5085821015620002c25787850151600019600388901b60f8161c191681555b5050505050600190811b01905550565b6114c180620002e26000396000f3fe608060405234801561001057600080fd5b506004361061010b5760003560e01c8063715018a6116100a2578063b88d4fde11610071578063b88d4fde1461021b578063c87b56dd1461022e578063d204c45e14610241578063e985e9c514610254578063f2fde38b1461026757600080fd5b8063715018a6146101e75780638da5cb5b146101ef57806395d89b4114610200578063a22cb4651461020857600080fd5b806323b872dd116100de57806323b872dd1461018d57806342842e0e146101a05780636352211e146101b357806370a08231146101c657600080fd5b806301ffc9a71461011057806306fdde0314610138578063081812fc1461014d578063095ea7b314610178575b600080fd5b61012361011e366004610f8c565b61027a565b60405190151581526020015b60405180910390f35b61014061028b565b60405161012f9190610ff9565b61016061015b36600461100c565b61031d565b6040516001600160a01b03909116815260200161012f565b61018b610186366004611041565b610346565b005b61018b61019b36600461106b565b610355565b61018b6101ae36600461106b565b6103e5565b6101606101c136600461100c565b610405565b6101d96101d43660046110a7565b610410565b60405190815260200161012f565b61018b610458565b6007546001600160a01b0316610160565b61014061046c565b61018b6102163660046110c2565b61047b565b61018b61022936600461118a565b610486565b61014061023c36600461100c565b61049e565b61018b61024f366004611206565b6104a9565b610123610262366004611268565b6104dc565b61018b6102753660046110a7565b61050a565b600061028582610548565b92915050565b60606000805461029a9061129b565b80601f01602080910402602001604051908101604052809291908181526020018280546102c69061129b565b80156103135780601f106102e857610100808354040283529160200191610313565b820191906000526020600020905b8154815290600101906020018083116102f657829003601f168201915b5050505050905090565b60006103288261056d565b506000828152600460205260409020546001600160a01b0316610285565b6103518282336105a6565b5050565b6001600160a01b03821661038457604051633250574960e11b8152600060048201526024015b60405180910390fd5b60006103918383336105b3565b9050836001600160a01b0316816001600160a01b0316146103df576040516364283d7b60e01b81526001600160a01b038086166004830152602482018490528216604482015260640161037b565b50505050565b61040083838360405180602001604052806000815250610486565b505050565b60006102858261056d565b60006001600160a01b03821661043c576040516322718ad960e21b81526000600482015260240161037b565b506001600160a01b031660009081526003602052604090205490565b61046061063f565b61046a600061066c565b565b60606001805461029a9061129b565b6103513383836106be565b610491848484610355565b6103df338585858561075d565b606061028582610888565b6104b161063f565b60088054600091826104c2836112d5565b9190505590506104d28382610999565b61040081836109b3565b6001600160a01b03918216600090815260056020908152604080832093909416825291909152205460ff1690565b61051261063f565b6001600160a01b03811661053c57604051631e4fbdf760e01b81526000600482015260240161037b565b6105458161066c565b50565b60006001600160e01b03198216632483248360e11b1480610285575061028582610a03565b6000818152600260205260408120546001600160a01b03168061028557604051637e27328960e01b81526004810184905260240161037b565b6104008383836001610a53565b6000828152600260205260408120546001600160a01b03168015806105df57506001600160a01b038516155b61062b5760405162461bcd60e51b815260206004820152601c60248201527f5342543a207472616e73666572206973206e6f7420616c6c6f77656400000000604482015260640161037b565b610636858585610b59565b95945050505050565b6007546001600160a01b0316331461046a5760405163118cdaa760e01b815233600482015260240161037b565b600780546001600160a01b038381166001600160a01b0319831681179093556040519116919082907f8be0079c531659141344cd1fd0a4f28419497f9722a3daafe3b4186f6b6457e090600090a35050565b6001600160a01b0382166106f057604051630b61174360e31b81526001600160a01b038316600482015260240161037b565b6001600160a01b03838116600081815260056020908152604080832094871680845294825291829020805460ff191686151590811790915591519182527f17307eab39ab6107e8899845ad3d59bd9653f200f220920489ca2b5937696c31910160405180910390a3505050565b6001600160a01b0383163b1561088157604051630a85bd0160e11b81526001600160a01b0384169063150b7a029061079f9088908890879087906004016112fc565b6020604051808303816000875af19250505080156107da575060408051601f3d908101601f191682019092526107d791810190611339565b60015b610843573d808015610808576040519150601f19603f3d011682016040523d82523d6000602084013e61080d565b606091505b50805160000361083b57604051633250574960e11b81526001600160a01b038516600482015260240161037b565b805181602001fd5b6001600160e01b03198116630a85bd0160e11b1461087f57604051633250574960e11b81526001600160a01b038516600482015260240161037b565b505b5050505050565b60606108938261056d565b50600082815260066020526040812080546108ad9061129b565b80601f01602080910402602001604051908101604052809291908181526020018280546108d99061129b565b80156109265780601f106108fb57610100808354040283529160200191610926565b820191906000526020600020905b81548152906001019060200180831161090957829003601f168201915b50505050509050600061094460408051602081019091526000815290565b90508051600003610956575092915050565b815115610988578082604051602001610970929190611356565b60405160208183030381529060405292505050919050565b61099184610c52565b949350505050565b610351828260405180602001604052806000815250610cc7565b60008281526006602052604090206109cb82826113cb565b506040518281527ff8e1a15aba9398e019f0b49df1a4fde98ee17ae345cb5f6b5e2c27f5033e8ce79060200160405180910390a15050565b60006001600160e01b031982166380ac58cd60e01b1480610a3457506001600160e01b03198216635b5e139f60e01b145b8061028557506301ffc9a760e01b6001600160e01b0319831614610285565b8080610a6757506001600160a01b03821615155b15610b29576000610a778461056d565b90506001600160a01b03831615801590610aa35750826001600160a01b0316816001600160a01b031614155b8015610ab65750610ab481846104dc565b155b15610adf5760405163a9fbf51f60e01b81526001600160a01b038416600482015260240161037b565b8115610b275783856001600160a01b0316826001600160a01b03167f8c5be1e5ebec7d5bd14f71427d1e84f3dd0314c0f7b2291e5b200ac8c7c3b92560405160405180910390a45b505b5050600090815260046020526040902080546001600160a01b0319166001600160a01b0392909216919091179055565b6000828152600260205260408120546001600160a01b0390811690831615610b8657610b86818486610cdf565b6001600160a01b03811615610bc457610ba3600085600080610a53565b6001600160a01b038116600090815260036020526040902080546000190190555b6001600160a01b03851615610bf3576001600160a01b0385166000908152600360205260409020805460010190555b60008481526002602052604080822080546001600160a01b0319166001600160a01b0389811691821790925591518793918516917fddf252ad1be2c89b69c2b068fc378daa952ba7f163c4a11628f55a4df523b3ef91a4949350505050565b6060610c5d8261056d565b506000610c7560408051602081019091526000815290565b90506000815111610c955760405180602001604052806000815250610cc0565b80610c9f84610d43565b604051602001610cb0929190611356565b6040516020818303038152906040525b9392505050565b610cd18383610dd6565b61040033600085858561075d565b610cea838383610e3b565b610400576001600160a01b038316610d1857604051637e27328960e01b81526004810182905260240161037b565b60405163177e802f60e01b81526001600160a01b03831660048201526024810182905260440161037b565b60606000610d5083610e9e565b600101905060008167ffffffffffffffff811115610d7057610d706110fe565b6040519080825280601f01601f191660200182016040528015610d9a576020820181803683370190505b5090508181016020015b600019016f181899199a1a9b1b9c1cb0b131b232b360811b600a86061a8153600a8504945084610da457509392505050565b6001600160a01b038216610e0057604051633250574960e11b81526000600482015260240161037b565b6000610e0e838360006105b3565b90506001600160a01b03811615610400576040516339e3563760e11b81526000600482015260240161037b565b60006001600160a01b038316158015906109915750826001600160a01b0316846001600160a01b03161480610e755750610e7584846104dc565b806109915750506000908152600460205260409020546001600160a01b03908116911614919050565b60008072184f03e93ff9f4daa797ed6e38ed64bf6a1f0160401b8310610edd5772184f03e93ff9f4daa797ed6e38ed64bf6a1f0160401b830492506040015b6d04ee2d6d415b85acef81000000008310610f09576d04ee2d6d415b85acef8100000000830492506020015b662386f26fc100008310610f2757662386f26fc10000830492506010015b6305f5e1008310610f3f576305f5e100830492506008015b6127108310610f5357612710830492506004015b60648310610f65576064830492506002015b600a83106102855760010192915050565b6001600160e01b03198116811461054557600080fd5b600060208284031215610f9e57600080fd5b8135610cc081610f76565b60005b83811015610fc4578181015183820152602001610fac565b50506000910152565b60008151808452610fe5816020860160208601610fa9565b601f01601f19169290920160200192915050565b602081526000610cc06020830184610fcd565b60006020828403121561101e57600080fd5b5035919050565b80356001600160a01b038116811461103c57600080fd5b919050565b6000806040838503121561105457600080fd5b61105d83611025565b946020939093013593505050565b60008060006060848603121561108057600080fd5b61108984611025565b925061109760208501611025565b9150604084013590509250925092565b6000602082840312156110b957600080fd5b610cc082611025565b600080604083850312156110d557600080fd5b6110de83611025565b9150602083013580151581146110f357600080fd5b809150509250929050565b634e487b7160e01b600052604160045260246000fd5b600067ffffffffffffffff8084111561112f5761112f6110fe565b604051601f8501601f19908116603f01168101908282118183101715611157576111576110fe565b8160405280935085815286868601111561117057600080fd5b858560208301376000602087830101525050509392505050565b600080600080608085870312156111a057600080fd5b6111a985611025565b93506111b760208601611025565b925060408501359150606085013567ffffffffffffffff8111156111da57600080fd5b8501601f810187136111eb57600080fd5b6111fa87823560208401611114565b91505092959194509250565b6000806040838503121561121957600080fd5b61122283611025565b9150602083013567ffffffffffffffff81111561123e57600080fd5b8301601f8101851361124f57600080fd5b61125e85823560208401611114565b9150509250929050565b6000806040838503121561127b57600080fd5b61128483611025565b915061129260208401611025565b90509250929050565b600181811c908216806112af57607f821691505b6020821081036112cf57634e487b7160e01b600052602260045260246000fd5b50919050565b6000600182016112f557634e487b7160e01b600052601160045260246000fd5b5060010190565b6001600160a01b038581168252841660208201526040810183905260806060820181905260009061132f90830184610fcd565b9695505050505050565b60006020828403121561134b57600080fd5b8151610cc081610f76565b60008351611368818460208801610fa9565b83519083019061137c818360208801610fa9565b01949350505050565b601f82111561040057600081815260208120601f850160051c810160208610156113ac5750805b601f850160051c820191505b8181101561087f578281556001016113b8565b815167ffffffffffffffff8111156113e5576113e56110fe565b6113f9816113f3845461129b565b84611385565b602080601f83116001811461142e57600084156114165750858301515b600019600386901b1c1916600185901b17855561087f565b600085815260208120601f198616915b8281101561145d5788860151825594840194600190910190840161143e565b508582101561147b5787850151600019600388901b60f8161c191681555b5050505050600190811b0190555056fea2646970667358221220be6128dbff97651f7468f0b1119b3c8e4e379da9914211919bd31d978749d6bb64736f6c63430008140033","linkReferences":{}},"methodIdentifiers":{"approve(address,uint256)":"095ea7b3","balanceOf(address)":"70a08231","getApproved(uint256)":"081812fc","isApprovedForAll(address,address)":"e985e9c5","name()":"06fdde03","owner()":"8da5cb5b","ownerOf(uint256)":"6352211e","renounceOwnership()":"715018a6","safeMint(address,string)":"d204c45e","safeTransferFrom(address,address,uint256)":"42842e0e","safeTransferFrom(address,address,uint256,bytes)":"b88d4fde","setApprovalForAll(address,bool)":"a22cb465","supportsInterface(bytes4)":"01ffc9a7","symbol()":"95d89b41","tokenURI(uint256)":"c87b56dd","transferFrom(address,address,uint256)":"23b872dd","transferOwnership(address)":"f2fde38b"},"id":41}